:1008F1004D51497364700076312F002F7468696E11
:1009010067732F002F646174612F007C2020204DBC
:1009110079646576696365732020207C20202049F5
:100921004F54204D6F64656C2020207C2020204294
:1009310079205A59205869616F20207C202020207D
:1009410020323031372D3720202020002B2B2B0057
:1009510041542B5253540041542B43495053544159
:1009610052543D22544350222C226D7174742E6DC9
:1009710079646576696365732E636F6D222C3138F6
:1009810038330041542B4349504D4F44453D3100CC
:1009910041542B43495053454E44004368616E6EA8
:1009A100656C20313A204F4E004368616E6E656C74
:1009B10020313A204F464600825E000100597631CF
:1009C1002F37373236316262302D346432652D3142
:1009D1003165372D613163382D3033613331306208
:1009E10030376262322F7468696E67732F646337C0
:1009F10037633232302D346438332D313165372D40
:100A0100393064632D636436333963613930396158
:100A1100382F636D642F3200305D005A76312F37E5
:100A2100373236316262302D346432652D313165B1
:100A3100372D613163382D303361333130623037D6
:100A41006262322F7468696E67732F64633737632C
:100A51003232302D346438332D313165372D393010
:100A610064632D6364363339636139303961382FFA
:100A7100646174612F64633737633232302D3464BB
:100A810038332D313165372D393064632D63643648
:100A91003339636139303961380037373236316281
:100AA10062302D346432652D313165372D6131630A
:100AB100382D303361333130623037626232003683
:100AC100656364633734313939643462343364378C
:100AD10063303163346336343031363262373161F9
:0C0AE10062353061373763000000000010
:06145600016C01016D00B4
:0412AF008F5C8D5D66
:1012B300E4F55EF55EE55E900A1993FF121484056A
:1012C3005EE55EC3945D40EDE55C2430FF1214845B
:0812D300E55D2430FF121484D4
:0112DB0022F0
:100DE100E4F55CF55D7F10121484755C00755D0C93
:100DF1007BFF7A0A797612142DEF2402FFE43EFE7E
:100E0100EF255DF55DEE355CF55C7BFF7A0A799B3C
:100E110012142DEF2402FFE43EFEEF255DF55DEE99
:100E2100355CF55C7BFF7A0A79C012142DEF240240
:0E0E3100FFE43EFEEF255DF55DEE355CF55C01
:100E3F00AE5CAF5D7C007D80120C108D5EAE5CAF42
:100E4F005D7C007D80120C108E5C8F5DD3E55D9410
:100E5F0000E55C648094804003435E80AF5E1214B3
:010E6F0084FE
:100E7000D3E55D9400E55C6480948050C27F067E7B
:100E8000001213567BFF7A0879F11211DE7F0312EC
:100E900014847FC21214847F3C7E001213567BFFA1
:100EA0007A0A797612142D1213567BFF7A0A797614
:100EB0001211DE7BFF7A0A799B12142D1213567BD6
:100EC000FF7A0A799B1211DE7BFF7A0A79C012142D
:0D0ED0002D1213567BFF7A0A79C01211DE35
:010EDD0022F2
:040EDE008F5C8D5D3B
:100EE200E4F55EF55F7F32121484755E00755F175C
:100EF2007BFF7A0A797612142DEF255FF55FEE35C6
:100F02005EF55E7BFF7A0A799B12142DEF255FF561
:060F12005FEE355EF55EA6
:100F1800AE5EAF5F7C007D80120C108D60AE5EAF60
:100F28005F7C007D80120C108E5E8F5FD3E55F942E
:100F380000E55E648094804003436080AF601214D3
:010F48008424
:100F4900D3E55F9400E55E6480948050C2E4FF12AB
:100F590014847F5A1214847BFF7A0879F81211DEFF
:100F69007BFF7A0A799B1211DE7BFF7A0879FC12E2
:100F790011DE7BFF7A0A79761211DE7BFF7A097915
:100F8900051211DEE55C2430FF121484E4FF12140B
:0E0F9900847F01121484E55D2430FF1214845D
:010FA7002227
:10064600E4F552F553F556F5577A00795878587C03
:1006560000FD7BFF7A0A79E9FE7F02120BBD7A0064
:10066600795A785A7C007D007BFF7A0A79EB7E0006
:100676007F02120BBD75B5FF75B3FF75B60F7FE828
:100686007E03121442D2B5121418121492121034A8
:1006960012127F7BFF7A09790C120CB41213CF7BEE
:1006A600FF7A09794D1211DE7F887E131214427B80
:1006B600FF7A0979511211DE7F0D1214847F0A1216
:1006C6001484E4FF1214847F107E27121442121140
:1006D6001E7F987E3A12144212111E7BFF7A097908
:1006E600581211DE7F0D1214847F0A121484E4FF5F
:1006F6001214847F107E2712144212111E7BFF7A79
:100706000979841211DE7F0D1214847F0A12148473
:10071600E4FF1214847F107E2712144212111E7BEE
:10072600FF7A0979911211DE7F0D1214847F0A1265
:100736001484E4FF1214847F107E271214421211CF
:100746001E120DE17F107E27121442E54E640460EE
:10075600030206A51210B27FB87E0B121442E4F50E
:1007660056F55774B92557F58274093556F583E45D
:1007760093FF1214840557E55770020556C394601B
:10078600E5566480948040DB7F107E271214421267
:1007960010B27FB87E0B121442C2B7E4F552F5537D
:1007A600FD7F021212AFE4FD7F031212AF12103466
:1007B60012127FE55364014552700B7BFF7A09796B
:1007C6009C120CB480097BFF7A0979AA120CB4E555
:1007D6004E6427704A7407254EF8E6B4301FC2B738
:1007E600E4F552F553FD7F021212AFE4FD7F0312CA
:1007F60012AF7BFF7A0979AA120CB4801FD2B775A3
:1008060052007553017D017F021212AF7D017F03F5
:100816001212AF7BFF7A09799C120CB4E4F54EE410
:10082600F54EFD7F01120EDE7FF47E01121442E5C5
:100836004EB40407E4F56DF54E8005056DE4F54EFE
:10084600E56D640A70030206A5E55364014552701E
:10085600097D017F031212AF8007E4FD7F031212A8
:10086600AF7D017F011212AF7FF47E01121442E4C4
:10087600F54EF554F555C3E555942CE5546480942E
:100886008140030207D51213B4EF604DE55345527C
:100896007020F552755301D2B77D017F021212AF57
:1008A6007D017F031212AF7BFF7A09799C120CB48B
:1008B600801DE4F552F553C2B7FD7F021212AFE474
:1008C600FD7F031212AF7BFF7A0979AA120CB47F5F
:1008D600F47E01121442E4F54E7F0A7E00121442A1
:0A08E6000555E55570020554808C9D
:0108F00022E5
:0414970075B60F22F5
:10137B00E4FFFEE4FDFC0DBD00010CED64134C70AD
:0C138B00F50FBF00010EEF640A4E70E782
:011397002233
:10144200AB07AA06EB1BAE0270011A4E600512131F
:041452007B80F12288
:1013B400E5B120E6037F0322E5B120E5037F0222A5
:0B13C400E5B120E4037F01227F00223E
:1012DC0075B1FE7FF47E0112144275B1FD7FF47E70
:1012EC000112144275B1FB7FF47E0112144275B1E8
:0912FC00F77FF47E011214422276
:1013050075B1F77FF47E0112144275B1FB7FF47E4F
:101315000112144275B1FD7FF47E0112144275B1BC
:09132500FE7FF47E011214422245
:1014180075B1F07FF47E0112144275B1FF7FF47E3E
:05142800011214422234
:10116C0079011214971213B4EF14600E1460071463
:10117C00700A79038006790280027901E924FE6005
:10118C000C14600E240270DD1212DC80D8121418BC
:09119C0080D312130580CE80CC33
:0111A5002227
:05149200D290D291226E
:06148C00C29000C2912293
:09146000D290D291C290C29122F7
:09146900C291C290D291D29022EE
:09147200C290D291C291D29022E5
:09147B00D290D291C291D29022CC
:10132E00E4FEEF20E704C2908002D290D29100003A
:10133E0000C291EF25E0FF0EBE08E7D290D29100D9
:07134E00A290E433FFC291FD
:011355002275
:10139800E4FFFED291309003430701EEC394075057
:0B13A80004EF25E0FFC2910EBE08E834
:0113B3002217
:03145C00014E003E
:1013CF0090E600740AF090E6087401F053877F7579
:0913DF009850D2ACD28CD2AF229E
:0611DE008B618A62896347
:1011E400E4F564AB61AA62A96312142DC3E5649F9C
:1011F400EE6480F87480985017AB61AA62A9638585
:101204006482758300120BE3FF121484056480D397
:0112140022B7
:061215008B658A66896703
:10121B00E4F568AB65AA66A96712142DC3E5689F50
:10122B00EE6480F87480985017AB65AA66A9678541
:10123B006882758300120BE3FF121484056880D358
:01124B002280
:1010B20012127FE4FF1213E87F101213E87F40122E
:1010C20013E87FB01213E8E4F55EE55EC3954E5077
:1010D200477408255EF8E6FFC4540FF55CEF540F21
:1010E200F55DE55CC3940A500AE55C2430FF1211F9
:1010F200A68008E55C2457FF1211A6E55DC3940A99
:10110200500AE55D2430FF1211A68008E55D2457E0
:0B111200FF1211A6055E80B2E4F54E4E
:01111D0022AF
:10111E0012127FE4FF1213E87F101213E87F4012C1
:10112E0013E87FB01213E8E4F55EE55EC3954E500A
:10113E00297408255EF8E6FF640D6009EF640A6005
:10114E0004EFB40B077F201211A6800A7408255EE7
:0D115E00F8E6FF1211A6055E80D0E4F54E04
:01116B002261
:10135600AB07AA067C017D00120C108F993099FD0F
:10136600C299AE02AF037C017D00120C108D99303C
:0513760099FDC299225F
:081484008F993099FDC29922F5
:0300230002124C7A
:09124C00C0E0C0D075D000C00064
:10125500309820C298E54EC3944650147408254E24
:10126500F8A699054E7407254EF8E6B40A058003DD
:03127500754E00B3
:07127800D000D0D0D0E0321D
:1000260000000000000000000000000000000000CA
:10003600000000000000005F005F000000000000FC
:100046000000000000030007000000070003000096
:10005600000000100074001C0077001C001700044C
:1000660000000024002E002A007F002A003A00101B
:100076000000004C006A0076001A006A0056003341
:1000860000000030007A004F005D0037007A00481B
:10009600000000000004000700030000000000004C
:1000A600000000000000001C003E0063004100004C
:1000B6000000000000410063003E001C000000003C
:1000C60000000008002A003E001C003E002A00082E
:1000D600000000080008003E003E0008000800007E
:1000E600000000000000006000600000000000004A
:1000F60000000008000800080008000800080000CA
:100106000000000000000060006000000000000029
:100116000000006000300018000C0006000300011B
:100126000000001C003E00610043003E001C000071
:10013600000000000044007F007F00400000000037
:1001460000000046006700710059004F006600007D
:100156000000002200630049004D007F00320000CD
:1001660000000018001C0052007F007F00500000B5
:100176000000002F006F00450045007D003900009B
:100186000000003C007E004B004900790030000072
:100196000000000700430071007D000F000300000F
:1001A60000000036007F004D0059007F0036000039
:1001B60000000006004F00490069003F001E0000D5
:1001C600000000000000006600660000000000005D
:1001D600000000000000006600660000000000004D
:1001E600000000000008001C00360063004100000B
:1001F6000000001400140014001400140014000081
:1002060000000000004100630036001C00080000EA
:1002160000000002000700510059000F0006000010
:100226000000003E0041005D0055005D0051001ECB
:10023600000000400070001D0017001F00780060DD
:1002460000000041007F007F0049004F007E003023
:100256000000001C003E00630041004100420027F0
:1002660000000041007F007F00410063003E001C4B
:1002760000000041007F007F0049005D00410063EF
:1002860000000041007F007F0049001D00010003BF
:100296000000001C003E0063004100510072007720
:1002A6000000007F007F00080008007F007F00003C
:1002B600000000000041007F007F004100000000B8
:1002C60000000030007000410041007F003F000147
:1002D6000000007F007F0008001C007700630041DB
:1002E60000000041007F007F004100400060007078
:1002F6000000007F007E000C0018000C007E007FCE
:100306000000007F007E000C00180030007F007F98
:100316000000001C003E006300410063003E001C1C
:1003260000000041007F007F00490009000F000621
:100336000000001C003E006300510063003E001CEC
:100346000000007F007F00090019007F0066004062
:1003560000000066006F004D0059007B003300006E
:10036600000000030041007F007F00410003000001
:100376000000003F007F004000400040007F003F3B
:1003860000000003000F003D0070001D0007000183
:100396000000000F007F0030001C0030007F000FBF
:1003A600000000630077001C001C0077006300005B
:1003B600000100030047007C0078004700030001AD
:1003C6000000006700730059004D006700730000CD
:1003D600000000000000007F007F00410041000097
:1003E6000000000100030006000C00180030006049
:1003F6000000000000410041007F007F0000000077
:1004060000000000000400060003000600040000CF
:1004160000000000000000000000000000000000D6
:1004260000000000000100030006000400000000B8
:1004360000000068006C00540054003C0078004046
:1004460000000041007F003F006C0044007C003843
:1004560000000038007C00440044006C002C0000C2
:1004660000000038007C00440049003F007F004047
:1004760000000038007C00540054005C0058000066
:10048600000000000048007E007F0049000B0002CB
:1004960000000048007C00340034002C0068004452
:1004A60000000041007F007F00080004007C007807
:1004B600000000000044007D007D004000000000B8
:1004C6000000006000600004007D007D0000000068
:1004D60000000041007F007F00100078006C00449F
:1004E600000000000041007F007F00400000000087
:1004F6000000007C007C000C0078000C007C00787A
:1005060000000044007C007C00080004007C0078A9
:1005160000000038007C00440044007C00380000E5
:1005260000000004007C007800240024003C001831
:1005360000000018003C002400240078007C000025
:1005460000000044007C0078004C0004001C0018E9
:1005560000000048005C005C007400740024000089
:10056600000000000004003E007F0044002400005C
:100576000000003C007C00400040003C007C004045
:1005860000000004001C003C00600030001C000459
:100596000000001C007C0030001C0030007C001CA9
:1005A60000000044006C003C00100078006C004421
:1005B60000000044004C001C00700064001C000C8D
:1005C6000000004C00640074005C004C00640000F5
:1005D600000000080008003E0077004100410000CE
:1005E600000000000000007F007F00000000000007
:1005F6000000004100410077003E000800080000AE
:1006060000000002000100010003000200020001D8
:10061600000000600078004E0047005E0078006031
:100626000000001C003E002300410041004200275C
:100636000000003D007D00400041003D007C004080
:1013E8008F6312148C7F7812132EE4FF12132EAF22
:0813F8006312132E1214692286
:101400008F6312148C7F7812132E7F4012132EAF2D
:081410006312132E121469226D
:101034007FAE1213E87FD51213E87F801213E87F86
:10104400A81213E87F3F1213E87FD31213E8E4FFDA
:101054001213E87F401213E87F8D1213E87F1412F5
:1010640013E87F201213E8E4FF1213E87FA11213A0
:10107400E87FC81213E87FDA1213E87F121213E82C
:101084007F811213E87FCF1213E87FD91213E87F10
:10109400F11213E87FDB1213E87F401213E87FA4F8
:0E10A4001213E87FA61213E87FAF1213E822A2
:10127F00E4FF1213E87F101213E87F401213E87F88
:10128F00B01213E8E4F55FF560E4FF121400056097
:0F129F00E5607002055FC3E55F6480948440EAF8
:0112AE00221D
:0211A6008F5F59
:1011A800E4F560E55F75F008A47C002560FFEC3588
:1011B800F0FEEF25E0FFEE33FE74262FF58274FE75
:1011C8003EF583E493740193FF1214000560E56013
:0511D800C3940840CEA5
:0111DD0022EF
:10000300E4FF1213E87F101213E87F401213E8E4B1
:0F001300FFFE0FBF00010EE4B507F7EEB404F3D4
:0100220022BB
:060CB4008B5C8A5D895E85
:100CBA00E4F55FF560F561F562FF1213E87F101243
:100CCA0013E87F401213E87FB01213E8E4F55FF5EA
:100CDA0060AB5CAA5DA95E12142DC3E5609FEE6449
:100CEA0080F8E55F6480984003020DA1AB5CAA5DC1
:100CFA00A95E856082855F83120BE3FF640D60093C
:100D0A00EF640A6004EFB40B36E4F561F562E5625C
:100D1A0025E0FFE56133FE74262FF58274003EF567
:100D2A0083E493740193FF1214000562E562700272
:100D3A000561C39408E5616480948040D1804DE4E4
:100D4A00F561F562AB5CAA5DA95E856082855F8309
:100D5A00120BE375F008A42562FFE56135F0FEEF9A
:100D6A0025E0FFEE33FE74262FF58274FE3EF583EE
:100D7A00E493740193FF1214000562E562700205A0
:100D8A0061C39408E5616480948040B80560E560B9
:100D9A007002055F020CDBE4F55FF560AB5CAA5DEF
:100DAA00A95E12142DEF7803C333CE33CED8F9FFE0
:100DBA00C3E49FFF74049EFEC3E5609FEE6480F85F
:100DCA00E55F648098500FE4FF1214000560E56047
:060DDA007002055F80C6F7
:010DE00022F0
:03000000020FA844
:0C0FA800787FE4F6D8FD75816F020FEF32
:100AED00E709F608DFFA8046E709F208DFFA803EEB
:100AFD0088828C83E709F0A3DFFA8032E309F608D8
:100B0D00DFFA8078E309F208DFFA807088828C833F
:100B1D00E309F0A3DFFA806489828A83E0A3F608F3
:100B2D00DFFA805889828A83E0A3F208DFFA804CCD
:100B3D0080D280FA80C680D4806980F280338010A4
:100B4D0080A680EA809A80A880DA80E280CA80330D
:100B5D0089828A83ECFAE493A3C8C582C8CCC58385
:100B6D00CCF0A3C8C582C8CCC583CCDFE9DEE78055
:100B7D000D89828A83E493A3F608DFF9ECFAA9F0D4
:100B8D00EDFB2289828A83ECFAE0A3C8C582C8CC2A
:100B9D00C583CCF0A3C8C582C8CCC583CCDFEADE43
:100BAD00E880DB89828A83E493A3F208DFF980CCA5
:100BBD0088F0EF60010E4E60C388F0ED2402B4049E
:100BCD000050B9F582EB2402B4040050AF23234545
:060BDD008223900B3D7322
:100BE300BB010CE58229F582E5833AF583E02250C7
:100BF30006E92582F8E622BBFE06E92582F8E22211
:0D0C0300E58229F582E5833AF583E493222A
:100C1000C2D5EC30E709B2D5E4C39DFDE49CFCEEFF
:100C200030E715B2D5E4C39FFFE49EFE120C5FC30C
:100C3000E49DFDE49CFC8003120C5F30D507C3E407
:060C40009FFFE49EFE226E
:10142D00E4FFFE120C46600C0FEF70010E09E9701F
:05143D00F20A80EF221D
:100FB400020646E493A3F8E493A34003F68001F207
:100FC40008DFF48029E493A3F85407240CC8C3333E
:100FD400C4540F4420C8834004F456800146F6DF0D
:100FE400E4800B0102040810204080901456E47E33
:100FF400019360BCA3FF543F30E509541FFEE49302
:10100400A360010ECF54C025E060A840B8E493A3C8
:10101400FAE493A3F8E493A3C8C582C8CAC583CAF3
:10102400F0A3C8C582C8CAC583CADFE9DEE780BEAB
:01145F00008C
:100C4600BB010689828A83E0225002E722BBFE02AC
:090C5600E32289828A83E49322DF
:100C5F00BC000BBE0029EF8DF084FFADF022E4CC79
:100C6F00F875F008EF2FFFEE33FEEC33FCEE9DEC42
:100C7F00984005FCEE9DFE0FD5F0E9E4CEFD22ED88
:100C8F00F8F5F0EE8420D21CFEADF075F008EF2FD2
:100C9F00FFED33FD4007985006D5F0F222C398FDC3
:050CAF000FD5F0EA2260
:00000001FF
